{
  "_format": "hh-sol-artifact-1",
  "contractName": "BettingPlatform",
  "sourceName": "contracts/BettingPlatform.sol",
  "abi": [
    {
      "inputs": [],
      "stateMutability": "nonpayable",
      "type": "constructor"
    },
    {
      "anonymous": false,
      "inputs": [
        {
          "indexed": true,
          "internalType": "uint256",
          "name": "betId",
          "type": "uint256"
        },
        {
          "indexed": false,
          "internalType": "address",
          "name": "creator",
          "type": "address"
        },
        {
          "indexed": false,
          "internalType": "string",
          "name": "description",
          "type": "string"
        },
        {
          "indexed": false,
          "internalType": "address",
          "name": "token",
          "type": "address"
        }
      ],
      "name": "BetCreated",
      "type": "event"
    },
    {
      "anonymous": false,
      "inputs": [
        {
          "indexed": true,
          "internalType": "uint256",
          "name": "betId",
          "type": "uint256"
        },
        {
          "indexed": false,
          "internalType": "address",
          "name": "user",
          "type": "address"
        },
        {
          "indexed": false,
          "internalType": "uint256",
          "name": "option",
          "type": "uint256"
        },
        {
          "indexed": false,
          "internalType": "uint256",
          "name": "amount",
          "type": "uint256"
        }
      ],
      "name": "BetPlaced",
      "type": "event"
    },
    {
      "anonymous": false,
      "inputs": [
        {
          "indexed": true,
          "internalType": "uint256",
          "name": "betId",
          "type": "uint256"
        },
        {
          "indexed": false,
          "internalType": "uint256",
          "name": "winningOption",
          "type": "uint256"
        }
      ],
      "name": "BetResolved",
      "type": "event"
    },
    {
      "anonymous": false,
      "inputs": [
        {
          "indexed": true,
          "internalType": "uint256",
          "name": "betId",
          "type": "uint256"
        },
        {
          "indexed": false,
          "internalType": "address",
          "name": "validator",
          "type": "address"
        },
        {
          "indexed": false,
          "internalType": "uint256",
          "name": "option",
          "type": "uint256"
        }
      ],
      "name": "BetValidated",
      "type": "event"
    },
    {
      "anonymous": false,
      "inputs": [
        {
          "indexed": true,
          "internalType": "address",
          "name": "previousOwner",
          "type": "address"
        },
        {
          "indexed": true,
          "internalType": "address",
          "name": "newOwner",
          "type": "address"
        }
      ],
      "name": "OwnershipTransferred",
      "type": "event"
    },
    {
      "inputs": [],
      "name": "BURN_PERCENTAGE",
      "outputs": [
        {
          "internalType": "uint256",
          "name": "",
          "type": "uint256"
        }
      ],
      "stateMutability": "view",
      "type": "function"
    },
    {
      "inputs": [],
      "name": "MAX_OPTIONS",
      "outputs": [
        {
          "internalType": "uint256",
          "name": "",
          "type": "uint256"
        }
      ],
      "stateMutability": "view",
      "type": "function"
    },
    {
      "inputs": [],
      "name": "MIN_BET_AMOUNT",
      "outputs": [
        {
          "internalType": "uint256",
          "name": "",
          "type": "uint256"
        }
      ],
      "stateMutability": "view",
      "type": "function"
    },
    {
      "inputs": [],
      "name": "MIN_OPTIONS",
      "outputs": [
        {
          "internalType": "uint256",
          "name": "",
          "type": "uint256"
        }
      ],
      "stateMutability": "view",
      "type": "function"
    },
    {
      "inputs": [],
      "name": "PLATFORM_FEE",
      "outputs": [
        {
          "internalType": "uint256",
          "name": "",
          "type": "uint256"
        }
      ],
      "stateMutability": "view",
      "type": "function"
    },
    {
      "inputs": [],
      "name": "VALIDATION_THRESHOLD",
      "outputs": [
        {
          "internalType": "uint256",
          "name": "",
          "type": "uint256"
        }
      ],
      "stateMutability": "view",
      "type": "function"
    },
    {
      "inputs": [
        {
          "internalType": "address",
          "name": "tokenAddress",
          "type": "address"
        }
      ],
      "name": "addSupportedToken",
      "outputs": [],
      "stateMutability": "nonpayable",
      "type": "function"
    },
    {
      "inputs": [],
      "name": "betCount",
      "outputs": [
        {
          "internalType": "uint256",
          "name": "",
          "type": "uint256"
        }
      ],
      "stateMutability": "view",
      "type": "function"
    },
    {
      "inputs": [
        {
          "internalType": "uint256",
          "name": "",
          "type": "uint256"
        }
      ],
      "name": "bets",
      "outputs": [
        {
          "internalType": "address",
          "name": "creator",
          "type": "address"
        },
        {
          "internalType": "string",
          "name": "description",
          "type": "string"
        },
        {
          "internalType": "uint256",
          "name": "minBetAmount",
          "type": "uint256"
        },
        {
          "internalType": "uint256",
          "name": "validationCount",
          "type": "uint256"
        },
        {
          "internalType": "uint256",
          "name": "winningOption",
          "type": "uint256"
        },
        {
          "internalType": "bool",
          "name": "isResolved",
          "type": "bool"
        },
        {
          "internalType": "uint256",
          "name": "totalPool",
          "type": "uint256"
        },
        {
          "internalType": "uint256",
          "name": "createdAt",
          "type": "uint256"
        },
        {
          "internalType": "uint256",
          "name": "validationFee",
          "type": "uint256"
        },
        {
          "internalType": "contract IERC20",
          "name": "token",
          "type": "address"
        }
      ],
      "stateMutability": "view",
      "type": "function"
    },
    {
      "inputs": [
        {
          "internalType": "string",
          "name": "description",
          "type": "string"
        },
        {
          "internalType": "uint256",
          "name": "numOptions",
          "type": "uint256"
        },
        {
          "internalType": "address",
          "name": "tokenAddress",
          "type": "address"
        },
        {
          "internalType": "uint256",
          "name": "validationFee",
          "type": "uint256"
        }
      ],
      "name": "createBet",
      "outputs": [
        {
          "internalType": "uint256",
          "name": "",
          "type": "uint256"
        }
      ],
      "stateMutability": "nonpayable",
      "type": "function"
    },
    {
      "inputs": [
        {
          "internalType": "uint256",
          "name": "betId",
          "type": "uint256"
        }
      ],
      "name": "getBetInfo",
      "outputs": [
        {
          "internalType": "address",
          "name": "creator",
          "type": "address"
        },
        {
          "internalType": "string",
          "name": "description",
          "type": "string"
        },
        {
          "internalType": "uint256[]",
          "name": "pools",
          "type": "uint256[]"
        },
        {
          "internalType": "bool",
          "name": "isResolved",
          "type": "bool"
        },
        {
          "internalType": "uint256",
          "name": "totalPool",
          "type": "uint256"
        },
        {
          "internalType": "address",
          "name": "tokenAddress",
          "type": "address"
        }
      ],
      "stateMutability": "view",
      "type": "function"
    },
    {
      "inputs": [],
      "name": "owner",
      "outputs": [
        {
          "internalType": "address",
          "name": "",
          "type": "address"
        }
      ],
      "stateMutability": "view",
      "type": "function"
    },
    {
      "inputs": [
        {
          "internalType": "uint256",
          "name": "betId",
          "type": "uint256"
        },
        {
          "internalType": "uint256",
          "name": "option",
          "type": "uint256"
        },
        {
          "internalType": "uint256",
          "name": "amount",
          "type": "uint256"
        }
      ],
      "name": "placeBet",
      "outputs": [],
      "stateMutability": "nonpayable",
      "type": "function"
    },
    {
      "inputs": [
        {
          "internalType": "address",
          "name": "tokenAddress",
          "type": "address"
        }
      ],
      "name": "removeSupportedToken",
      "outputs": [],
      "stateMutability": "nonpayable",
      "type": "function"
    },
    {
      "inputs": [],
      "name": "renounceOwnership",
      "outputs": [],
      "stateMutability": "nonpayable",
      "type": "function"
    },
    {
      "inputs": [
        {
          "internalType": "address",
          "name": "",
          "type": "address"
        }
      ],
      "name": "supportedTokens",
      "outputs": [
        {
          "internalType": "bool",
          "name": "",
          "type": "bool"
        }
      ],
      "stateMutability": "view",
      "type": "function"
    },
    {
      "inputs": [
        {
          "internalType": "address",
          "name": "newOwner",
          "type": "address"
        }
      ],
      "name": "transferOwnership",
      "outputs": [],
      "stateMutability": "nonpayable",
      "type": "function"
    },
    {
      "inputs": [
        {
          "internalType": "uint256",
          "name": "betId",
          "type": "uint256"
        },
        {
          "internalType": "uint256",
          "name": "option",
          "type": "uint256"
        }
      ],
      "name": "validateResult",
      "outputs": [],
      "stateMutability": "nonpayable",
      "type": "function"
    }
  ],
  "bytecode": "0x608060405234801561001057600080fd5b5061001a336100a4565b60018055610027336100a4565b60046020527f7ef95397d98fffb4a12a466d73a89d3cf49fa95ff4ba0aa1db6aaf272b7982158054600160ff199182168117909255736982508145454ce325ddbe47a25d4ec3d23119336000527f19d0821ba62a0c7fbb9d867c74bb5b54c54f71a6bf0e731ff0ad7f03ce192cf7805490911690911790556100f4565b600080546001600160a01b038381166001600160a01b0319831681178455604051919092169283917f8be0079c531659141344cd1fd0a4f28419497f9722a3daafe3b4186f6b6457e09190a35050565b61155a806101036000396000f3fe608060405234801561001057600080fd5b50600436106101165760003560e01c8063715018a6116100a25780639649b910116100715780639649b9101461023b578063cd62e31f14610243578063cf09449714610256578063e71c96971461025f578063f2fde38b1461027257600080fd5b8063715018a6146101e057806376319190146101e857806379141f80146101fb5780638da5cb5b1461022057600080fd5b80634612eede116100e95780634612eede1461016f5780636475e3d314610184578063651043341461019257806368c4ac261461019a5780636d69fcaf146101cd57600080fd5b80630da183d61461011b57806314552f261461013657806322af00fa1461013e57806334fbc9a114610167575b600080fd5b610123600581565b6040519081526020015b60405180910390f35b610123600381565b61015161014c366004611022565b610285565b60405161012d9a99989796959493929190611081565b610123601981565b61018261017d3660046110ec565b610374565b005b610123662386f26fc1000081565b610123600281565b6101bd6101a836600461112a565b60046020526000908152604090205460ff1681565b604051901515815260200161012d565b6101826101db36600461112a565b6105d9565b610182610605565b6101826101f636600461112a565b610619565b61020e610209366004611022565b610642565b60405161012d9695949392919061114c565b6000546040516001600160a01b03909116815260200161012d565b610123600181565b6101236102513660046111dc565b610782565b61012360035481565b61018261026d3660046112af565b61095e565b61018261028036600461112a565b610cfd565b600260205260009081526040902080546001820180546001600160a01b0390921692916102b1906112db565b80601f01602080910402602001604051908101604052809291908181526020018280546102dd906112db565b801561032a5780601f106102ff5761010080835404028352916020019161032a565b820191906000526020600020905b81548152906001019060200180831161030d57829003601f168201915b50505060028401546006850154600786015460088701546009880154600a890154600b8a0154600c909a01549899959894975092955060ff9091169390926001600160a01b03168a565b61037c610d76565b6000828152600260205260409020600881015460ff16156103db5760405162461bcd60e51b815260206004820152601460248201527310995d08185b1c9958591e481c995cdbdb1d995960621b60448201526064015b60405180910390fd5b33600090815260058201602052604090205460ff16156104315760405162461bcd60e51b8152602060048201526011602482015270105b1c9958591e481d985b1a59185d1959607a1b60448201526064016103d2565b600381015482106104755760405162461bcd60e51b815260206004820152600e60248201526d24b73b30b634b21037b83a34b7b760911b60448201526064016103d2565b600c810154600b8201546040516323b872dd60e01b815233600482015230602482015260448101919091526001600160a01b03909116906323b872dd906064016020604051808303816000875af11580156104d4573d6000803e3d6000fd5b505050506040513d601f19601f820116820180604052508101906104f89190611315565b503360009081526005820160205260408120805460ff19166001179055600682018054916105258361134d565b91905055506003816006015410610590576007810182905560088101805460ff1916600117905561055583610dcf565b827f6f014aa1fc0c12b56c099fa8727bbf780907046b16c01199f4092f5c721187ab8360405161058791815260200190565b60405180910390a25b604080513381526020810184905284917f5969365f33b3893ffa58a7674ac7d71324da78851bfafa23f398deb49657e5cc910160405180910390a2506105d560018055565b5050565b6105e1610f18565b6001600160a01b03166000908152600460205260409020805460ff19166001179055565b61060d610f18565b6106176000610f72565b565b610621610f18565b6001600160a01b03166000908152600460205260409020805460ff19169055565b6000818152600260205260408120805460088201546009830154600c840154600185018054606096879689968796879693956001600160a01b03938416959094600388019460ff909416931690859061069a906112db565b80601f01602080910402602001604051908101604052809291908181526020018280546106c6906112db565b80156107135780601f106106e857610100808354040283529160200191610713565b820191906000526020600020905b8154815290600101906020018083116106f657829003601f168201915b505050505094508380548060200260200160405190810160405280929190818152602001828054801561076557602002820191906000526020600020905b815481526020019060010190808311610751575b505050505093509650965096509650965096505091939550919395565b600060028410158015610796575060058411155b6107e25760405162461bcd60e51b815260206004820152601960248201527f496e76616c6964206e756d626572206f66206f7074696f6e730000000000000060448201526064016103d2565b6001600160a01b03831660009081526004602052604090205460ff166108405760405162461bcd60e51b8152602060048201526013602482015272151bdad95b881b9bdd081cdd5c1c1bdc9d1959606a1b60448201526064016103d2565b60038054600091826108518361134d565b90915550600081815260026020526040902080546001600160a01b031916331781559091506001810161088488826113b4565b50662386f26fc1000060028201558567ffffffffffffffff8111156108ab576108ab6111c6565b6040519080825280602002602001820160405280156108d4578160200160208202803683370190505b5080516108eb916003840191602090910190610fc2565b5042600a820155600b8101849055600c810180546001600160a01b0319166001600160a01b03871617905560405182907f27e2cabbebdf6c72a9aa4cbdfab7b773de062af618ad0a992884be3e8496d1a69061094c9033908b908a90611474565b60405180910390a25095945050505050565b610966610d76565b6000838152600260205260409020600881015460ff16156109bb5760405162461bcd60e51b815260206004820152600f60248201526e10995d081a5cc81c995cdbdb1d9959608a1b60448201526064016103d2565b600381015483106109ff5760405162461bcd60e51b815260206004820152600e60248201526d24b73b30b634b21037b83a34b7b760911b60448201526064016103d2565b8060020154821015610a4a5760405162461bcd60e51b8152602060048201526014602482015273416d6f756e742062656c6f77206d696e696d756d60601b60448201526064016103d2565b60006064610a596001856114a9565b610a6391906114c6565b905060006103e8610a756019866114a9565b610a7f91906114c6565b9050600081610a8e84876114e8565b610a9891906114e8565b600c8501546040516323b872dd60e01b8152336004820152306024820152604481018890529192506001600160a01b0316906323b872dd906064016020604051808303816000875af1158015610af2573d6000803e3d6000fd5b505050506040513d601f19601f82011682018060405250810190610b169190611315565b50600c84015460405163a9059cbb60e01b815260006004820152602481018590526001600160a01b039091169063a9059cbb906044016020604051808303816000875af1158015610b6b573d6000803e3d6000fd5b505050506040513d601f19601f82011682018060405250810190610b8f9190611315565b50600c8401546001600160a01b031663a9059cbb610bb56000546001600160a01b031690565b6040516001600160e01b031960e084901b1681526001600160a01b039091166004820152602481018590526044016020604051808303816000875af1158015610c02573d6000803e3d6000fd5b505050506040513d601f19601f82011682018060405250810190610c269190611315565b506000868152600485016020908152604080832033845290915281208054839290610c529084906114fb565b9250508190555080846003018781548110610c6f57610c6f61150e565b906000526020600020016000828254610c8891906114fb565b9250508190555080846009016000828254610ca391906114fb565b9091555050604080513381526020810188905290810186905287907f1b8a9031cb9351278d70a994f81536e9e08c91162e64f92b2fe4766fb7a891b49060600160405180910390a250505050610cf860018055565b505050565b610d05610f18565b6001600160a01b038116610d6a5760405162461bcd60e51b815260206004820152602660248201527f4f776e61626c653a206e6577206f776e657220697320746865207a65726f206160448201526564647265737360d01b60648201526084016103d2565b610d7381610f72565b50565b600260015403610dc85760405162461bcd60e51b815260206004820152601f60248201527f5265656e7472616e637947756172643a207265656e7472616e742063616c6c0060448201526064016103d2565b6002600155565b600081815260026020526040812060078101546003820180549293929091908110610dfc57610dfc61150e565b906000526020600020015490506000811115610cf857600982015460005b6003840154811015610f115760078401546000908152600485016020908152604080832033845290915290205415610eff576007840154600090815260048501602090815260408083203384529091528120548490610e7a9085906114a9565b610e8491906114c6565b600c86015460405163a9059cbb60e01b8152336004820152602481018390529192506001600160a01b03169063a9059cbb906044016020604051808303816000875af1158015610ed8573d6000803e3d6000fd5b505050506040513d601f19601f82011682018060405250810190610efc9190611315565b50505b80610f098161134d565b915050610e1a565b5050505050565b6000546001600160a01b031633146106175760405162461bcd60e51b815260206004820181905260248201527f4f776e61626c653a2063616c6c6572206973206e6f7420746865206f776e657260448201526064016103d2565b600080546001600160a01b038381166001600160a01b0319831681178455604051919092169283917f8be0079c531659141344cd1fd0a4f28419497f9722a3daafe3b4186f6b6457e09190a35050565b828054828255906000526020600020908101928215610ffd579160200282015b82811115610ffd578251825591602001919060010190610fe2565b5061100992915061100d565b5090565b5b80821115611009576000815560010161100e565b60006020828403121561103457600080fd5b5035919050565b6000815180845260005b8181101561106157602081850181015186830182015201611045565b506000602082860101526020601f19601f83011685010191505092915050565b6001600160a01b038b81168252610140602083018190526000916110a78483018e61103b565b604085019c909c52606084019a909a525050608081019690965293151560a086015260c085019290925260e08401526101008301529091166101209091015292915050565b600080604083850312156110ff57600080fd5b50508035926020909101359150565b80356001600160a01b038116811461112557600080fd5b919050565b60006020828403121561113c57600080fd5b6111458261110e565b9392505050565b600060018060a01b038089168352602060c08185015261116f60c085018a61103b565b84810360408601528851808252828a019183019060005b818110156111a257835183529284019291840191600101611186565b505097151560608601525050608083019490945250911660a0909101529392505050565b634e487b7160e01b600052604160045260246000fd5b600080600080608085870312156111f257600080fd5b843567ffffffffffffffff8082111561120a57600080fd5b818701915087601f83011261121e57600080fd5b813581811115611230576112306111c6565b604051601f8201601f19908116603f01168101908382118183101715611258576112586111c6565b816040528281528a602084870101111561127157600080fd5b8260208601602083013760006020848301015280985050505050506020850135925061129f6040860161110e565b9396929550929360600135925050565b6000806000606084860312156112c457600080fd5b505081359360208301359350604090920135919050565b600181811c908216806112ef57607f821691505b60208210810361130f57634e487b7160e01b600052602260045260246000fd5b50919050565b60006020828403121561132757600080fd5b8151801515811461114557600080fd5b634e487b7160e01b600052601160045260246000fd5b60006001820161135f5761135f611337565b5060010190565b601f821115610cf857600081815260208120601f850160051c8101602086101561138d5750805b601f850160051c820191505b818110156113ac57828155600101611399565b505050505050565b815167ffffffffffffffff8111156113ce576113ce6111c6565b6113e2816113dc84546112db565b84611366565b602080601f83116001811461141757600084156113ff5750858301515b600019600386901b1c1916600185901b1785556113ac565b600085815260208120601f198616915b8281101561144657888601518255948401946001909101908401611427565b50858210156114645787850151600019600388901b60f8161c191681555b5050505050600190811b01905550565b600060018060a01b03808616835260606020840152611496606084018661103b565b9150808416604084015250949350505050565b80820281158282048414176114c0576114c0611337565b92915050565b6000826114e357634e487b7160e01b600052601260045260246000fd5b500490565b818103818111156114c0576114c0611337565b808201808211156114c0576114c0611337565b634e487b7160e01b600052603260045260246000fdfea26469706673582212208e6d965d268d5861baa1ffad209546efd12b487a7bf3c8f617544deaf840d0a164736f6c63430008130033",
  "linkReferences": {},
  "deployedLinkReferences": {}
}